:020000040800F2
:1000000058080020A5010008152E0008F12D000851
:10001000112E0008351800089F4B00080000000052
:10002000000000000000000000000000A9390008E6
:100030007D23000800000000DD320008393F000881
:10004000BF010008BF010008BF010008BF01000890
:10005000BF010008BF010008412400085525000821
:10006000692600087D270008BF010008BF010008BD
:10007000BF010008BF010008BF010008BF01000860
:10008000BF010008BF010008BF010008BF01000850
:10009000BF010008BF010008BF0100089128000847
:1000A000BF010008BF010008BF010008BF01000830
:1000B0009D3F0008BF010008BF010008BF01000804
:1000C000BF010008BF010008BF010008BF01000810
:1000D000BF01000825490008BF010008BF01000852
:1000E000BF010008BF010008BF01000800F002F8CE
:1000F00000F048F80AA090E8000C82448344AAF17A
:100100000107DA4501D100F03DF8AFF2090EBAE877
:100110000F0013F0010F18BFFB1A43F0010318473B
:10012000086E0000286E0000103A24BF78C878C11D
:10013000FAD8520724BF30C830C144BF04680C60ED
:10014000704700000023002400250026103A28BF35
:1001500078C1FBD8520728BF30C148BF0B60704739
:10016000642900F05580002070471FB500F03CFC6A
:1001700004000020002105F03FFB401C60601FBD13
:1001800010B510BD00F00BFC1146FFF7EEFF05F0B7
:10019000A7F800F03BFC03B4FFF7F2FF03BC00F04C
:1001A0003FFC00000948804709480047FEE7FEE79A
:1001B000FEE7FEE7FEE7FEE7FEE7FEE7FEE7FEE717
:1001C00004480549054A064B704700003D3F0008BA
:1001D000ED000008580200205808002058040020B4
:1001E000580400200FB41CB5084B06AA7B4469468E
:1001F0000090059800F0E7FA04460020694600F0F8
:10020000F5FA20461CBC5DF814FB0000FD0500005B
:100210002DE9F0410646002410687529314616A5DF
:1002200010D0AFF30080002802DA404213A507E0A7
:1002300031688A0701D512A502E0490704D511A546
:10024000012401E0AFF3008000210A2206F1240717
:1002500009E0B0FBF2FCB0FBF2F302FB1C00303013
:1002600078541846491C0028F3D123462A463046C4
:10027000BDE8F04100F048BA000000002D00000089
:100280002B000000200000002DE9F05F89460446A5
:100290004FF0000ADFF874B1FB44C0F820A02046FC
:1002A000E1688847002874D0252806D0D4E90121C8
:1002B0009047206A401C2062F1E700265F462046F6
:1002C000E16888472028054607DB312D05D27819DB
:1002D00010F8200C08B10643F1E7B00701D526F06D
:1002E0000406C4F81CA00027C4F818A02A2D09D0C1
:1002F000284604F0C3FE38B304EB8708303DC8F845
:10030000185019E059F8041B204604EB870291614C
:10031000E1688847012F054618D1E069002820DAF6
:1003200026F020061DE0D8F8180000EB800005EB51
:1003300040003038C8F818002046E1688847054674
:1003400004F09CFE0028EED1012F0AD02E2D08D1FA
:100350002046E16888477F1C0546022F46F02006AC
:10036000C4DBA069002803DA404246F00106A06120
:10037000F00701D026F010066C2D0BD0682D09D0A7
:100380004C2D39D06A2D35D0742D35D07A2D33D0FF
:1003900016E038E0E1682F4620468847B842054617
:1003A00009D16C2F26D04FF48060E16806432046C7
:1003B0008847054604E06C2F1AD04FF4807006433E
:1003C0000DB3A5F14100192802D8203546F4006686
:1003D0004A462946204626604E46FFF7C1FE80B1B8
:1003E00001280BD0F61D26F0070000F1080956E79A
:1003F0004020E4E78020D8E70020D6E706F1040992
:100400004DE7284652E7206ABDE8F09F786C00006F
:1004100070B5064600F074F90468054630460A22B5
:10042000002100F0E8F92C6070BD0000014A00F0E6
:100430001BBA00004000002010B5431E13F8014F06
:10044000002CFBD105E011F8014B002C03F8014B07
:1004500003D0521EF7D20021197010BD40EA0103EB
:10046000024630B59B0710D14FF0013400E008C2BE
:1004700008C91D1B9D4315EAC41FF8D013F0FF01E6
:1004800002F8011B0DD01B0AF8E711F8013B002B05
:1004900002F8013B05D011F8013B002B02F8013BAB
:1004A000F3D130BD10B5431C02E010F8011B71B14F
:1004B0008107FAD14FF0013202C88C1A8C4314EA3A
:1004C000C211F9D0C01A0A0603D0C01E10BDC01A4E
:1004D00010BD0A0401D0801E10BD0902FCD0401ED0
:1004E00010BD40EA010370B59B072ED14FF00136D5
:1004F000042A2AD308C810C99D1B9D43121F15EA60
:10050000C61517D0D8B2E1B2401A50EA056110D131
:1005100098B2A1B2401A50EA05410AD123F07F40B7
:1005200024F07F41401A50EA052102D1180EA0EBB9
:10053000146070BDA342DBD018BA21BA884201D939
:10054000012070BD4FF0FF3070BD0AB9002070BDB2
:1005500010F8013B11F8014B63B1A3420AD1521EBE
:1005600008D010F8013B11F8014B1BB1A34201D197
:10057000521EEDD1181B70BD421E12F8013F002B18
:10058000FBD111F8013B002B02F8013BF9D1704778
:100590004FF000020429C0F0128010F0030C00F0AC
:1005A0001B80CCF1040CBCF1020F18BF00F8012B2A
:1005B000A8BF20F8022BA1EB0C0100F00DB85FEAF8
:1005C000C17C24BF00F8012B00F8012B48BF00F8C4
:1005D000012B70474FF0000200B513469446964633
:1005E000203922BFA0E80C50A0E80C50B1F1200146
:1005F000BFF4F7AF090728BFA0E80C5048BF0CC0F4
:100600005DF804EB890028BF40F8042B08BF704751
:1006100048BF20F8022B11F0804F18BF00F8012BC3
:10062000704710B5044610F0030F08BF11F0030F18
:1006300040F015804FF0013E121FC0F20E8051F8BD
:10064000043BA3EB0E0C2CEA030C1CEACE1C08BFE7
:1006500040F8043BF0D0A1F1040102F10402521E63
:1006600008DB11F8013B002B00F8013BF7D11146E4
:10067000FFF78EFF204610BD4FF0013C50F8042BD1
:1006800051F8043B9A4221D1A2EB0C03934313EAA5
:10069000CC1317D150F8042B51F8043B9A4215D1D2
:1006A000A2EB0C03934313EACC130BD150F8042BA9
:1006B00051F8043B9A4209D1A2EB0C03934313EA8D
:1006C000CC13DBD04FF00000704700BFD01A01BA46
:1006D000B1FA81F101F0180122FA01F0CB40C1F129
:1006E0002001DBB2C0B2C01A2CFA01F3D11A914337
:1006F00011EAC311E6D17047704770477047000098
:1007000000487047F80100202DE9F0470D46994652
:100710009246044600F124080168880604D5E06981
:1007200021F01001216000E00120A84201DD471BFB
:1007300000E00027A1697A1902EB0900081AA061FC
:100740002078C00602D42046AFF30080002608E0DF
:10075000D4E901211AF806009047206A401C761C53
:1007600020624E45F4DB2078C0060AD52046AFF360
:10077000008006E0D4E9012130209047206A401C27
:100780002062381EA7F10107F4DC07E0D4E901215B
:1007900018F805009047206A401C2062281EA5F129
:1007A0000105F3DC2046AFF300802078000602D577
:1007B0000220BDE8F0870120FBE7000001694A1C28
:1007C00002610878704700B58FB0CDE90131002192
:1007D000059105497944CDE9031011466846FFF7B4
:1007E00053FD0FB000BD0000E5FFFFFF0A6802F8EF
:1007F000010B0A6070472DE9F04791460F4680468D
:100800000446002614F8015B2DB100F053F800688F
:10081000405DC007F6D12B2D02D02D2D18D0641EBF
:100820004A463946204600F04DF827B13968A142C2
:1008300001D1C7F800804FF0020471050BD540428A
:10084000002803DDFFF75CFF0460A007BDE8F08728
:1008500046F48066E4E70028F8DAFFF751FF046009
:100860006FF00040F2E700002DE9F04115460E461A
:10087000040002D12C6804B90BA4204600F081F8D2
:100880000444207870B127463146384600F069F8B4
:100890000444207810B1002004F8010B38462C6085
:1008A000BDE8F0810027F9E700000000004870472C
:1008B000F801002010B500F097F8001D10BD00BF32
:1008C000394F00002DE9F05F824615468B46002720
:1008D0000AF10104B9460078302801D09DB113E037
:1008E00014F8010B0127782803D0582801D045B10E
:1008F0000AE00DB1102D07D1002714F8010B1025C7
:1009000002E0082500E00A250026B0460EE005FBBF
:10091000080005FB06F101271FFA80F801EB1046DD
:10092000B6F5803F00D3B94614F8010B294600F014
:100930005FF80028EBDABBF1000F05D00FB1641EA1
:1009400000E05446CBF80040B9F1000F06D0FFF7A5
:10095000D7FE02210160C81EBDE8F09F48EA0640AC
:10096000FAE730B503461D781DB10A4603E0AC42F4
:1009700001D1181A30BD12F8014B002CF7D15B1CC5
:10098000F1E730B503461D783DB10A4612F8014B38
:100990001CB1AC42FAD15B1CF5E7181A30BD7546A4
:1009A000FFF784FFAE4605006946534620F0070076
:1009B000854618B020B5FFF703FCBDE820404FF096
:1009C00000064FF000074FF000084FF0000B21F039
:1009D0000701AC46ACE8C009ACE8C009ACE8C00906
:1009E000ACE8C0098D4670470048704718020020E7
:1009F0003A2800D2303820F02002412A01D3A2F157
:100A00003700884201D34FF0FF30704710B50446DD
:100A1000AFF300802046BDE81040FFF7BCBB0000EC
:100A200001491820ABBEFEE7260002007047000017
:100A300010B588B0044600204B4908604BA2012144
:100A4000084602F0D7FB022002F03EFA032002F033
:100A50003BFA042002F038FA7FE010200F23022234
:100A600001210090084602F0D9FB842083218222D4
:100A70007823CDE90332CDE905107720812180224A
:100A80007F23CDE90021029008220121022002F0FB
:100A9000C5FB3AA20121032002F0ACFB1420162171
:100AA00015230322CDE900100421104602F0B6FB05
:100AB00033A20121042002F09DFB222021230222E7
:100AC00004210090084602F0A9FB2EA20A2104206E
:100AD00002F090FB5020542302220D2100900420AC
:100AE00002F09CFB20480068002836D01E480068B1
:100AF0000D2812D100201C4908601CA201210846C3
:100B000002F078FB022002F0DFF9032002F0DCF9AA
:100B1000042002F0D9F908B010BD134800680E286F
:100B200006D1002010490860204600F03FF914E08B
:100B30000D4800680F2806D100200B4908602046A8
:100B400000F0A2FA09E008480068102805D100204A
:100B500005490860204600F019F80B480068002895
:100B60007FF47BAF00BFD6E71000002020202020BC
:100B7000202020202020202020200000466E32004F
:100B8000466E3300466E340014000020F0B587B086
:100B9000054600207849086078A20121084602F045
:100BA00029FB022002F090F9032002F08DF90420C5
:100BB00002F08AF90020049005900690D4E01020FD
:100BC0000F23022201210090084602F027FB50204B
:100BD000542113221223CDE90032CDE90210112352
:100BE00005220121022002F019FB3A220B210220EA
:100BF00002F06EFA002407E004A8025D601CC1B296
:100C0000032002F065FA641C04A8005D0028F3D1FB
:100C1000092C05DC601CC1B25F22032002F058FAE7
:100C20005548006800280DD0534800680A280ADC9F
:100C3000092C08DC504800782F3004A90855002002
:100C40004D4908608FE04C4800680B280FD1012CFB
:100C50000DDB601CC1B22022032002F039FA002112
:100C6000601E04AA11540020434908607BE04248FA
:100C700000680C2861D1012C5FDB04A8FFF7C8FBDA
:100C8000064600203C4908603CA20121084602F0CB
:100C9000B1FA022002F018F9032002F015F904203D
:100CA00002F012F905EB4500384901EBC00006617E
:100CB00020205C215B225A23CDE9002102900422EE
:100CC0000121022002F0AAFA05EB45002F4F07EBA5
:100CD000C000036905EB450007EBC000C21D05EB32
:100CE000450007EBC001284601F066F8412040238B
:100CF000022201210090032002F090FA2122052116
:100D0000032002F0E5F9012001F045FB4FF4FA70F1
:100D100001F035FB1EA20121084602F06BFA022009
:100D200002F0D2F8032002F0CFF8042002F0CCF851
:100D300000201149086007B0F0BD0F4800680D2879
:100D400011D117A20121084602F054FA022002F044
:100D5000BBF8032002F0B8F8042002F0B5F8002038
:100D600005490860E7E700BF0F48006800287FF4E6
:100D700026AF00BFDFE70000100000202020202069
:100D8000202020202020202020200000A40000205F
:100D900020202020202020202020202000000000D3
:100DA000202020202000000014000020F0B589B091
:100DB00007460020A7490860A7A20121084602F0C3
:100DC00019FA022002F080F8032002F07DF80420D6
:100DD00002F07AF800200790089033E110200F23EA
:100DE000022201210090084602F018FA1420162170
:100DF00015227023CDE90232CDE90410132012210F
:100E000011230722CDE900100121022002F006FA89
:100E10003A220F21022002F05BF9002407E007A824
:100E2000025DA01DC1B2032002F052F9641C07A8A4
:100E3000005D0028F3D1052C05DCA01DC1B25F22A6
:100E4000032002F045F98348006800280DD081484E
:100E500000680A280ADC052C08DC7E4800782F3060
:100E600007A9085500207B490860EAE07948006836
:100E70000B280FD1012C0DDBA01DC1B220220320B5
:100E800002F026F90021601E07AA115400207149C2
:100E90000860D6E06F4800680C287DD1062CFCD194
:100EA00007A801F0BDFD054600206A490860681CDE
:100EB00000284ED0022002F007F8032002F004F8C8
:100EC000042002F001F81920182135221423CDE95D
:100ED0000132CDE9031016201523062201210090CE
:100EE000022002F09BF921220D21022002F0F0F8ED
:100EF0002820272137223623CDE90332CDE90510FA
:100F00001D201C211B221A23CDE90021029008225A
:100F10000121032002F082F9002603E0002007A946
:100F20008855761C062EF9DB00BF4A48006818B9C0
:100F30004D4800680028F8D100204649086002208A
:100F400001F0C2FF032001F0BFFF042001F0BCFF4D
:100F500060E000203F4908603FA20121084602F0FE
:100F600049F9022001F0B0FF032001F0ADFF042099
:100F700001F0AAFF05EB45013C4A02EBC100062245
:100F800007A9FFF74EFB20205C215B225A23CDE905
:100F900000210290042200E03DE00121022002F045
:100FA0003DF905EB4500314E06EBC000036905EB4A
:100FB000450006EBC000C21D05EB450006EBC00175
:100FC000284600F0F9FE4120402302220121009032
:100FD000032002F023F921220521032002F078F8F2
:100FE000012001F0D8F94FF4FA7001F0C8F920A2FD
:100FF0000121084602F0FEF8022001F065FF0320FF
:1010000001F062FF042001F05FFF00201149086039
:1010100009B0F0BD15E00F4800680D2811D118A2E5
:101020000121084602F0E6F8022001F04DFF0320FE
:1010300001F04AFF042001F047FF00200549086045
:10104000E6E700BF0848006800287FF4C7AE00BF8D
:10105000DEE700001000002020202020202020209B
:10106000202020202020000014000020A4000020C8
:1010700020202020202020202020202000000000F0
:10108000202020202000000070B588B005460020F8
:101090007849086078A20121084602F0ABF80220E6
:1010A00001F012FF032001F00FFF042001F00CFFFC
:1010B000002006900790D6E010200F230222012185
:1010C0000090084602F0AAF8222021217022132362
:1010D000CDE90132CDE903101220112306220121AE
:1010E0000090022002F09AF83A220D21022001F02D
:1010F000EFFF002407E006A8025DA01DC1B2032097
:1011000001F0E6FF641C06A8005D0028F3D1052C61
:1011100005DCA01DC1B25F22032001F0D9FF5548B4
:10112000006800280DD0534800680A280ADC052C06
:1011300008DC504800782F3006A9085500204D499A
:1011400008608FE04B4800680B280FD1012C0DDBA5
:10115000A01DC1B22022032001F0BAFF0021601EB1
:1011600006AA11540020434908607BE0414800680A
:101170000C2861D1062C5FD100203E4908603EA2B8
:101180000121084602F036F8022001F09DFE0320FE
:1011900001F09AFE042001F097FE05EB45013A4A62
:1011A00002EBC101C81D062206A9FFF73AFA20206A
:1011B0005C215B225A23CDE9002102900422012107
:1011C000022002F02BF805EB45002F4E06EBC00085
:1011D000036905EB450006EBC000C21D05EB4500A9
:1011E00006EBC001284600F0E7FD41204023022223
:1011F00001210090032002F011F821220521032093
:1012000001F066FF012001F0C6F84FF4FA7001F01A
:10121000B6F81EA20121084601F0ECFF022001F001
:1012200053FE032001F050FE042001F04DFE00208B
:101230001049086008B070BD0E4800680D2811D133
:1012400016A20121084601F0D5FF022001F03CFE64
:10125000032001F039FE042001F036FE002005498C
:101260000860E7E700BF0F48006800287FF424AF5C
:1012700000BFDFE7100000202020202020202020B9
:101280002020202020200000A4000020202020205A
:1012900020202020202020200000000020202020CE
:1012A00020000000140000203EB5044600206049E4
:1012B000086060A20121084601F09CFF022001F0B5
:1012C00003FE032001F000FE042001F0FDFDA7E075
:1012D00010200F23022201210090084601F09EFFFA
:1012E0001420162115230322CDE90010012102202C
:1012F00001F094FF3A220721022001F0E9FE04EBFD
:101300004400504901EBC0020921022001F072FFA4
:101310007A20792139223823CDE900210290042254
:101320000121032001F07AFF3F220921032001F06F
:10133000CFFE45A20121042001F05CFF39203823B3
:10134000022204210090084601F068FF3FA20A2112
:10135000042001F04FFF3720362302220D21009098
:10136000042001F05BFF324800680D2842D10020C4
:101370002F4908602FA20121084601F03BFF0220FF
:1013800001F0A2FD032001F09FFD042001F09CFD6F
:1013900020205C215B225A23CDE900210290042207
:1013A0000121022001F03AFF204601F00DF8412012
:1013B0004023022201210090032001F02FFF21226F
:1013C0000521032001F084FE012000F0E4FF4FF42A
:1013D000FA7000F0D4FF1EA20121084601F00AFFB6
:1013E000022001F071FD032001F06EFD042001F0E8
:1013F0006BFD3EBD0E4800680E2811D100200C493F
:1014000008600CA20121084601F0F4FE022001F060
:101410005BFD032001F058FD042001F055FDE8E7D5
:101420000F48006800287FF453AF00BFE1E70000D9
:1014300010000020202020202020202020202020FC
:1014400020200000A4000020466E3100466E3200CD
:10145000202020202020202020202020000000000C
:10146000140000202DE9F0438BB0012500274FF038
:101470000008282101A8FFF7ADF8002409E09348EF
:1014800050F8240020B138467F1C01A941F82040C3
:10149000641C0A2CF3DB12E17E207D230222012151
:1014A0000090084601F0BAFE3E220121022001F020
:1014B0000FFEB8F1000F10D17E2047230222062133
:1014C0000090012001F0AAFE2220212302220B21FC
:1014D0000090012001F0A2FE07E0502054230222D8
:1014E00006210090012001F099FE002467E02819F0
:1014F0007749096890FBF1F201FB12002919744A3F
:10150000126891FBF2F1461801A951F82620A11C9E
:10151000C8B20123022101F04BFEB8F1000F1BD12C
:1015200001A951F8261001EB41016A4B03EBC102FE
:10153000A11CC8B2042101F05DFE01A951F82610DA
:1015400001EB4101634B03EBC101CA1DA11CC8B2F1
:101550000B2101F04FFE31E001A951F8261001EBFB
:1015600041015C4A02EBC101086901F0D2FB00F0C5
:10157000FF0901A951F8261001EB4101554B03EB7E
:10158000C1010A69A11CC8B24B46062101F010FE38
:1015900001A951F8261001EB41014E4A02EBC101AD
:1015A000086901F0B6FB871D06E0F9B2A21CD0B2B3
:1015B000202201F08DFD7F1C102FF6DD641C032C12
:1015C00095DB45480068002879D043480068032827
:1015D00009D10020404908606D1E002D6CDC3C489C
:1015E0000068451E68E03C480068092809D10020D1
:1015F000394908606D1C3648006885425CDB01256E
:101600005AE035480068052803D0334800680728A9
:1016100018D1002030490860B8F1000F01D1012035
:1016200000E0002080462DA20521012001F0E2FD0E
:10163000022001F049FC032001F046FC042001F0E7
:1016400043FC39E0244800680D2805D101A951F870
:101650002500FFF7EDF92FE01F4800680E2812D192
:1016600001A951F82500FFF71FFE06E001A9681C3B
:1016700051F8200041F825006D1C092DF6DB0020F3
:101680000A90012518E0144800680F2814D10020A2
:101690001149086014A20121084601F0ABFD0220A7
:1016A00001F012FC032001F00FFC042001F00CFCFF
:1016B0000BB0BDE8F08302E00020074908600E4847
:1016C000006800287FF4E8AE00BFF1E77800002052
:1016D00000000020A4000020100000202020202076
:1016E000202020202020000020202020202020203A
:1016F00020202020202000001400002000B587B00A
:1017000000204249086042A20121084601F072FD12
:10171000022001F0D9FB032001F0D6FB042001F0E8
:10172000D3FB6CE03EA20121084601F063FD6D2071
:101730006C23022204210090012001F06FFD39A2E8
:101740000121022001F056FD782077230222042196
:101750000090104601F062FD33A20A21022001F040
:1017600049FD7A20792302220D210090104601F0D4
:1017700055FD6D206C217C227B23CDE90332CDE920
:1017800005101D201C211B221A23CDE900210290E7
:1017900008220121032001F041FD1A2301221146F4
:1017A000042001F03BFD21A20321042001F022FDD1
:1017B00037203623022206210090042001F02EFD5E
:1017C00012480068D8B112A20121084601F012FDAA
:1017D000022001F079FB032001F076FB042001F0E8
:1017E00073FB0A4800680F2804D1002007490860ED
:1017F00007B000BD002005490860FFF733FE0C4824
:10180000006800288ED100BFF2E700001000002021
:101810002020202020202020202020202020000008
:1018200041544D00466E3100466E3200466E330024
:101830001400002000BFFEE73EB504464FA2012180
:10184000084601F0D7FC022001F03EFB032001F026
:101850003BFB042001F038FB00204C4908605EE0AF
:101860002D202C23022201210090084601F0D6FCF5
:1018700004EB4400464901EBC0020521012001F0C0
:10188000B9FC3A220B21012001F022FC5020542304
:10189000022201210090104601F0C0FC3A220521ED
:1018A000022001F015FC04EB4401394A02EBC101AE
:1018B000086901F02EFAC5B204EB4400344901EB8B
:1018C000C0002B4606210269022001F071FC1A2299
:1018D0000121032001F036FC2EA20321084601F06D
:1018E00089FC37203623022206210090032001F0D4
:1018F00095FC1A220121042001F024FC26A20321D8
:10190000042001F077FC2220212155226F23CDE90C
:101910000021029004220621104601F07FFC1F489E
:10192000006838B1194800680D2803D017480068CE
:101930000E2895D1154800680D2811D100201349B3
:1019400008600EA20121084601F054FC022001F0BB
:10195000BBFA032001F0B8FA042001F0B5FA3EBD4D
:101960000A4800680E2806D10020084908600121B5
:10197000204602F0A3F800BFF1E70000202020205D
:1019800020202020202020202020000010000020E7
:10199000A4000020466E3100466E32001400002084
:1019A00070B58AB005460020F7490860F7A201210A
:1019B000084601F01FFC022001F086FA032001F026
:1019C00083FA042001F080FA35E01A220121022076
:1019D00001F0B8FBF1A20321022001F00BFC4A2028
:1019E0004823022206210090104601F017FC1A221B
:1019F0000121032001F0A6FBE9A20321084601F022
:101A0000F9FB4A204923022206210090032001F01D
:101A100005FC1A220121042001F094FBE1A203211C
:101A2000042001F0E7FB3720362302220621009034
:101A3000042001F0F3FBDC48006858B1D24800688C
:101A40000D2807D0D04800680E2803D0CE48006883
:101A50000F28BAD10020079008900990CA48006862
:101A60000D2879D10020C8490860C8A20121084684
:101A700001F0C0FB022001F027FA032001F024FA54
:101A8000042001F021FA9DE010200F230222012101
:101A90000090084601F0C2FB50204F214A22482303
:101AA000CDE90232CDE904101320122111230722BF
:101AB000CDE900100121022001F0B0FB3A220F21F4
:101AC000022001F005FB002407E007A8025D601C6E
:101AD000C1B2032001F0FCFA641C07A8005D0028D5
:101AE000F3D1092C05DC601CC1B25F22032001F098
:101AF000EFFAA5480068002863D0A34800680A28C8
:101B00000ADC092C08DCA04800782F3007A908550A
:101B100000209D49086051E09B4800680B280FD1C8
:101B2000002C0DDB601CC1B22022032001F0D0FA92
:101B30000021601E07AA11540020934908603DE06F
:101B4000914800680C2823D1002C21DD07A8FEF75E
:101B5000A9FC0A280ED100E03AE094A107A8FEF7FC
:101B60008BFD002806DD002007900890099003F007
:101B70000BFA0CE007A8FEF74BFC06460020824952
:101B800008603146284600F099FA0AB070BD15E0A9
:101B90007D4800680D2811D17CA20121084601F082
:101BA00029FB022001F090F9032001F08DF90420B7
:101BB00001F08AF900207449086008E000207249A9
:101BC000086000BF7848006800287FF45DAFD9E066
:101BD0006D4800680E287DD100206B4908606BA21B
:101BE0000121084601F006FB022001F06DF90320F7
:101BF00001F06AF9042001F067F9AAE010200F2330
:101C0000022201210090084601F008FB50204F21DC
:101C10004A224923CDE90232CDE9041013201221D2
:101C200011230722CDE900100121022001F0F6FA6C
:101C30003A220F21022001F04BFA002407E007A806
:101C4000025D601CC1B2032001F042FA641C07A8C7
:101C5000005D0028F3D1092C05DC601CC1B25F22B5
:101C6000032001F035FA48480068002870D0464843
:101C700000680A280ADC092C08DC434800782F3069
:101C800007A908550020404908605EE03E4800680A
:101C90000B280FD1002C0DDB601CC1B220220320C9
:101CA00001F016FA0021601E07AA115400203649DF
:101CB00008604AE0344800680C2830D1002C2EDD42
:101CC00000203149086031A20121084601F092FA52
:101CD000022000E043E001F0F7F8032001F0F4F8FF
:101CE000042001F0F1F807A8FEF7DCFB0A280CD16C
:101CF0002EA107A8FEF7C0FC002806DD00200790F3
:101D00000890099003F040F908E007A8FEF780FB6F
:101D100006463146284601F0E3FA36E715E01A4850
:101D200000680D2811D119A20121084601F062FABC
:101D3000022001F0C9F8032001F0C6F8042001F0E8
:101D4000C3F800201049086008E000200E49086030
:101D500000BF1548006800287FF450AF12E00A4821
:101D600000680F280ED109A20121084601F042FAAD
:101D7000022001F0A9F8032001F0A6F8042001F0E8
:101D8000A3F802E700BF00E7100000202020202079
:101D9000202020202020202000000000466E31005E
:101DA000466E3200466E330014000020343239345F
:101DB0003936373239350000F0B58BB004460D4660
:101DC00016461F461C2104A8FEF704FC1C2104A88B
:101DD000FEF700FC50208DF8100004F13000C0B276
:101DE0008DF8110004EB4400174A02EBC0010622F3
:101DF00004A8FEF721FB04EB4400134A02EBC000E9
:101E0000C11D062204A8FEF717FB04EB44000E498F
:101E100001EBC0000DA1026901A8FEF7E3F901A9D9
:101E200004A8FEF7A9FB0AA104A8FEF7A5FB04A8D5
:101E300001F036FE00BF074800780028FBD00020E4
:101E4000044908700BB0F0BDA40000202564000018
:101E50003F2100003C00002070B588B006460020FD
:101E60008C4908608CA20121084601F0C3F90220C8
:101E700001F02AF8032001F027F8042001F024F8EB
:101E8000002006900790F0E010200F23022201218D
:101E90000090084601F0C2F922202121392238237E
:101EA000CDE90021029004220121022001F0B6F9BF
:101EB0003A220921022001F00BF9002406E0A01DBE
:101EC000C1B22A22032001F003F9641C06A8005DB8
:101ED0000028F4D1052C05DCA01DC1B25F2203202F
:101EE00001F0F6F86B48006800280DD069480068DA
:101EF0000A280ADC052C08DC664800782F3006A981
:101F00000855002063490860AEE0624800680B286D
:101F10000FD1002C0DDBA01DC1B22022032001F047
:101F2000D7F80021601E06AA115400205949086004
:101F30009AE0584800680C287ED1062CFCD156A2A5
:101F40000121084601F056F9022000F0BDFF0320F0
:101F500000F0BAFF042000F0B7FF00204D490860F0
:101F6000062206A93046FEF7BCFA10B9012008B0D7
:101F700070BD3B203A2117222223CDE90232CDE960
:101F8000041021203D213C230722CDE9001001212E
:101F9000022001F043F921220F21022001F098F8DC
:101FA0001A220121032001F0CDF83FA203210846A7
:101FB00001F020F93F20272137223623CDE90021E7
:101FC000029004220621032001F028F91A2201219F
:101FD000042001F0B7F835A20321042001F00AF92A
:101FE0003920382129223E23CDE900210290042204
:101FF0000621104601F012F900BF264800680D289E
:1020000003D0244800680E28F7D1224800680E2823
:102010001AD121A20121084601F0ECF8022000F0BB
:1020200053FF032000F050FF042000F04DFF00207C
:1020300018490860002504E00EE0002006A9485574
:102040006D1C062DF9DB0FE0124800680D280BD13E
:102050000020104908608AE70E4800680D2803D167
:1020600000200C49086082E700BF11480068002882
:102070007FF40AAF0FA20121084601F0BBF802204D
:1020800000F022FF032000F01FFF042000F01CFFDF
:1020900000206CE71000002020202020202020209D
:1020A0002020202020200000466E3100466E3200A5
:1020B00014000020202020202000000070B586B0F1
:1020C00004460D460020A3490860A3A2012108464A
:1020D00001F090F8022000F0F7FE032000F0F4FE7B
:1020E000042000F0F1FE002D30D161205E215D2240
:1020F0005023CDE90232CDE904104F204A21482374
:102100000722CDE900100121022001F087F896A2F4
:102110000F21022001F06EF8012000F03CF94FF48D
:10212000FA7000F02CF900208A4908608AA2012187
:10213000084601F05FF8022000F0C6FE032000F020
:10214000C3FE042000F0C0FE06B070BDC5F1FF3034
:1021500004EB4401854A02EBC1010969884202D2BD
:1021600002F012FFF0E700207A4908603EE05020BC
:102170004F214A224823CDE9002102900422012167
:10218000084601F04BF83A220921012000F0A0FF97
:10219000284600F0BEFDC6B233462A460121022081
:1021A00001F006F81A220121032000F0CBFF70A2F3
:1021B0000321084601F01EF83920382302220621A7
:1021C0000090032001F02AF81A220121042000F0D7
:1021D000B9FF68A20321042001F00CF83720362350
:1021E000022206210090042001F018F862480068DD
:1021F00038B1584800680D2803D0564800680E28AA
:10220000B5D1544800680D287ED10020514908609E
:1022100051A20121084600F0EDFF022000F054FE1B
:10222000032000F051FE042000F04EFE20205C212F
:102230005B225A23CDE900210290042201210220D1
:1022400000F0ECFF04EB4400484901EBC0000069DA
:10225000284404EB4401454A02EBC101086104EB48
:102260004400164606EBC000036904EB440006EB8D
:10227000C000C21D04EB440006EBC0012046FFF77E
:102280009BFD022000F020FE41204023022201217C
:102290000090104600F0C2FF21220521022000F02C
:1022A00017FF5020542159225823CDE900210290D4
:1022B00004220121032000F0B1FF3A22092103206A
:1022C00000F006FF04EB4401324602EBC10108694D
:1022D00000F01FFDC6B204EB4400244901EBC0002E
:1022E000334601210269042000F062FF012000F062
:1022F00052F84FF4FA7000F042F8002015490860D7
:1023000015A20121084600E00BE000F073FF022057
:1023100000F0DAFD032000F0D7FD042000F0D4FD2A
:1023200012E70C4800680E2811D100200949086006
:1023300009A20121084600F05DFF022000F0C4FD63
:10234000032000F0C1FD042000F0BEFDFCE600BF4C
:10235000FAE600001000002020202020202020206D
:10236000202020200000000030210000A4000020D8
:10237000466E3100466E320014000020704710B5E2
:10238000044603E04FF47A7000F011F8201EA4F127
:102390000104F7D110BD10B5044603E04FF47A7084
:1023A000FFF7EDFF201EA4F10104F7D110BD014697
:1023B00004E0002000E0401C0A28FCDB0A1EA1F11A
:1023C0000101F6D17047000038B5044600200090A6
:1023D00044208DF8000004F13000C0B28DF80100F7
:1023E00021208DF80200684601F05AFB04EB4400FE
:1023F000104901EBC000002140F8071F8180817166
:1024000004EB44000B4901EBC00000210160818016
:102410008171002004EB4401064A02EBC10108610E
:10242000054941F8240005480068401E034908603A
:1024300038BD0000A400002078000020000000202B
:1024400008B50021012001F0F5F83220FFF797FFD1
:1024500010208DF803000120ADF8000003208DF856
:1024600002006946394800F013FB0121374800F0AB
:10247000A3FB1021354800F096FB78B91420FFF734
:102480007EFF02E00120FFF792FF10212F4800F0AD
:102490008AFB0028F6D001202D49086020212B4816
:1024A00000F081FB78B91420FFF769FF02E00120FA
:1024B000FFF77DFF2021254800F075FB0028F6D0AE
:1024C0000B20234908604021204800F06CFB78B9BC
:1024D0001420FFF754FF02E00120FFF768FF4021BE
:1024E0001A4800F060FB0028F6D00C20184908605C
:1024F0008021164800F057FB78B91420FFF73FFF02
:1025000002E00120FFF753FF8021104800F04BFB51
:102510000028F6D00D200E490860012000F01CFABA
:102520000121084601F086F800204FF080418884A0
:1025300028208DF803000120ADF8000003208DF85D
:1025400002006946014800F0A3FA08BD00080140F6
:102550001000002008B50021012001F06BF83220A6
:10256000FFF70DFF10208DF803000220ADF80000EA
:1025700003208DF802006946394800F089FA0221EB
:10258000374800F019FB1021354800F00CFB78B9F2
:102590001420FFF7F4FE02E00120FFF708FF1021EE
:1025A0002F4800F000FB0028F6D002202D490860DB
:1025B00020212B4800F0F7FA78B91420FFF7DFFE4E
:1025C00002E00120FFF7F3FE2021254800F0EBFA9E
:1025D0000028F6D00520234908604021204800F05B
:1025E000E2FA78B91420FFF7CAFE02E00120FFF7F3
:1025F000DEFE40211A4800F0D6FA0028F6D0082066
:10260000184908608021164800F0CDFA78B91420E6
:10261000FFF7B5FE02E00120FFF7C9FE8021104858
:1026200000F0C1FA0028F6D00E200E490860022002
:1026300000F092F90121084600F0FCFF00204FF065
:102640008041888428208DF803000220ADF8000026
:1026500003208DF802006946014800F019FA08BD10
:10266000000801401000002008B50021012000F002
:10267000E1FF3220FFF783FE10208DF803000420D5
:10268000ADF8000003208DF802006946394800F0DB
:10269000FFF90421374800F08FFA1021354800F087
:1026A00082FA78B91420FFF76AFE02E00120FFF7F2
:1026B0007EFE10212F4800F076FA0028F6D0032085
:1026C0002D49086020212B4800F06DFA78B91420BC
:1026D000FFF755FE02E00120FFF769FE20212548A3
:1026E00000F061FA0028F6D0062023490860402156
:1026F000204800F058FA78B91420FFF740FE02E0B5
:102700000120FFF754FE40211A4800F04CFA00283F
:10271000F6D00920184908608021164800F043FAD5
:1027200078B91420FFF72BFE02E00120FFF73FFEEF
:102730008021104800F037FA0028F6D00F200E490B
:102740000860042000F008F90121084600F072FF3B
:1027500000204FF08041888428208DF80300042059
:10276000ADF8000003208DF802006946014800F032
:102770008FF908BD000801401000002008B50021B5
:10278000012000F057FF3220FFF7F9FD10208DF8EF
:1027900003000820ADF8000003208DF80200694610
:1027A000394800F075F90821374800F005FA102182
:1027B000354800F0F8F978B91420FFF7E0FD02E0A1
:1027C0000120FFF7F4FD10212F4800F0ECF900285C
:1027D000F6D004202D49086020212B4800F0E3F9B1
:1027E00078B91420FFF7CBFD02E00120FFF7DFFDF1
:1027F0002021254800F0D7F90028F6D007202349EA
:1028000008604021204800F0CEF978B91420FFF785
:10281000B6FD02E00120FFF7CAFD40211A4800F092
:10282000C2F90028F6D00A2018490860802116480D
:1028300000F0B9F978B91420FFF7A1FD02E00120FA
:10284000FFF7B5FD8021104800F0ADF90028F6D063
:1028500010200E490860082000F07EF8012108468B
:1028600000F0E8FE00204FF08041888428208DF899
:1028700003000820ADF8000003208DF8020069462F
:10288000014800F005F908BD0008014010000020D3
:1028900010B50121084600F0CDFE6420FFF76FFD62
:1028A000402000F05FF801280DD100202749086082
:1028B00000F0F4FA06220F21012000F043FC402032
:1028C00000F04AF839E0802000F04CF801280AD1E5
:1028D00000F08CFB06220F21012000F033FC802049
:1028E00000F03AF829E04FF4807000F03BF801283E
:1028F0001AD11748006808B9012000E000201449E7
:1029000008600846006828B14FF40051114800F0F3
:1029100053F904E04FF400510E4800F0F3F94FF47E
:10292000807000F019F808E04FF4007000F01AF819
:10293000012802D1400200F00FF80121084600F002
:1029400079FE00204FF08041888410BD14000020E3
:102950001800002000100140014908607047000085
:1029600014040140014600200022074B1B6803EAC3
:102970000102054B14331B680B4013B10AB101204F
:1029800000E00020704700000004014000212349BE
:102990008279002A3AD00A46126803689A430B46A5
:1029A0001A600A1D126803689A430B1D1A600279A7
:1029B00011440A6803681A430A60184A0832126808
:1029C00003689A43154B08331A601A1D126803688E
:1029D0009A43124B0C331A604279102A0ED11A1FF7
:1029E000126803681A430D4B08331A601A1D1268E7
:1029F00003681A43094B0C331A600DE0074942790A
:102A000011440A6803681A430A6005E00279114418
:102A10000A6803689A430A60704700000004014096
:102A200070B5054600240CE004EB4401074A02EBB4
:102A3000C10006222946FDF754FD08B9204670BDA5
:102A4000641C0A2CF0DB4FF0FF30F8E7A4000020F4
:102A500030B500228B071C0F0F2303FA04F20B4B37
:102A60008C1053F824309343084C8D1044F82530D3
:102A700023468C1053F824308C07240F00FA04F4FA
:102A80002343024C8D1044F8253030BD080001402E
:102A90002DE9F041024600250026002000230024F5
:102AA000002791F803C00CF00F0591F803C00CF05B
:102AB000100CBCF1000F03D091F802C04CEA0505E0
:102AC00091F800C0BCF1000F31D0146800202BE059
:102AD0004FF0010C0CFA00F3B1F800C00CEA030649
:102AE0009E4220D183004FF00F0C0CFA03F7BC4339
:102AF00005FA03FC4CEA040491F803C0BCF1280F6A
:102B000006D14FF0010C0CFA00FCC2F814C00AE028
:102B100091F803C0BCF1480F05D14FF0010C0CFA3D
:102B200000FCC2F810C0401C0828D1D31460B1F8D2
:102B300000C0BCF1FF0F34DD546800202EE000F12E
:102B4000080C4FF0010808FA0CF3B1F800C00CEAC9
:102B500003069E4221D183004FF00F0C0CFA03F7BD
:102B6000BC4305FA03FC4CEA040491F803C0BCF131
:102B7000280F05D100F1080C08FA0CF8C2F81480EF
:102B800091F803C0BCF1480F07D100F1080C4FF0D9
:102B9000010808FA0CF8C2F81080401C0828CED3AF
:102BA0005460BDE8F0810246002093680B400BB1F1
:102BB000012000E000207047416170471FB50121EE
:102BC0001C2000F047FD0121084600F043FD1020C5
:102BD0008DF80F004002ADF80C0003208DF80E00B8
:102BE00003A94548FFF754FF28208DF80F000F2058
:102BF000ADF80C0003208DF80E0003A93F48FFF745
:102C000047FF48208DF80F00F020ADF80C0003209E
:102C10008DF80E0003A93948FFF73AFF48208DF8D8
:102C20000F004FF47070ADF80C0003208DF80E000B
:102C300003A93348FFF72CFF00210846FFF708FFE0
:102C400001210020FFF704FF02210020FFF700FF11
:102C500003210020FFF7FCFE06210120FFF7F8FE0C
:102C600007210120FFF7F4FE08210120FFF7F0FE05
:102C700009210120FFF7ECFE40F2CF300190002047
:102C80008DF8080008208DF8090001208DF80A0051
:102C900001A8FFF77BFE4FF4A06000F0F5F80620D6
:102CA0008DF8000001208DF8030002208DF801004E
:102CB0008DF80200684600F0AFF807208DF800009C
:102CC000684600F0A9F808208DF80000684600F07A
:102CD000A3F809208DF80000684600F09DF8172041
:102CE0008DF8000000208DF8010002208DF8020010
:102CF000684600F091F81FBD001001400008014037
:102D0000000C0140016170470AB1016100E04161BE
:102D10007047014601220AE00A2091FBF0F018B149
:102D20000A2091FBF0F101E010467047521C102A76
:102D3000F2DB1020F9E70000002100BF06E00548A3
:102D400050F8210008B9C8B27047491C0A29F6DBBF
:102D50006320F9E7780000203EB50546284600F0DC
:102D600024FE00201F49087000BF1E48007800287C
:102D7000FBD0002411E01C48005D05EB45011B4A17
:102D800002EBC10108551849A01D095C05EB45007F
:102D900002EBC000C01D0155641C062CEBDB0024B7
:102DA00006E0114904F10C00085C0DF80400641CF5
:102DB0000D4904F10C00085C0028F2D10021601CD0
:102DC0000DF8001008480160818000200549087056
:102DD0006846FDF71DFB05EB4501044A02EBC10106
:102DE00008613EBD3C00002094010020A4000020AA
:102DF00000BFFEE70121044A42F820100349096898
:102E0000491C024A11607047780000200000002031
:102E100000BFFEE77047000070B5002100230F22BD
:102E2000C47804B3154C246804F4E064C4F5E06489
:102E3000210AC1F10403CA40447804FA03F18478FA
:102E40001440214309010E4C0678A155047804F082
:102E50001F050124AC4005786D11AD0005F1E0259A
:102E6000C5F8004109E0047804F01F050124AC40D6
:102E7000044D0678761145F8264070BD0CED00E053
:102E800000E400E080E100E002490143024A1160F1
:102E9000704700000000FA050CED00E070B500245A
:102EA0000EE00021204600F002F9002504E0002099
:102EB00000F0E3F9681CC5B2802DF8DB601CC4B2D9
:102EC000082CEEDB70BD000010B5044602A2012103
:102ED000204600F08FF910BD202020202020202047
:102EE00020202020202020200000000008B5012103
:102EF000082000F0AFFB14208DF8030003208DF8AC
:102F000002004FF40060ADF8000069460A48FFF780
:102F1000BFFD4FF48060ADF8000069460648FFF73A
:102F2000B7FD0122D1020448FFF7EEFE0122910213
:102F30000148FFF7E9FE08BD000C014070B50546E9
:102F4000002415E08020204100EA05024FF4806152
:102F50000E48FFF7D9FE0122D1020C48FFF7D4FE3C
:102F600000224FF400610948FFF7CEFE601CC4B296
:102F7000082CE7DB0122D1020448FFF7C5FE00223E
:102F80004FF400610148FFF7BFFE70BD000C014027
:102F900010B5012291020A48FFF7B6FE0122D102C4
:102FA0000748FFF7B1FE00224FF480610448FFF7A5
:102FB000ABFE00224FF400610148FFF7A5FE10BDF3
:102FC000000C014010B500224FF480610648FFF765
:102FD0009BFE0122D1020448FFF796FE01229102D6
:102FE0000148FFF791FE10BD000C014070B50024B0
:102FF00006E0002500E06D1CB5F57A7FFBD3641C6C
:10300000B4F57A7FF5D3FFF771FFAE2000F025F914
:10301000D52000F022F9802000F01FF9A82000F050
:103020001CF93F2000F019F9D32000F016F9002018
:1030300000F013F9402000F010F9A12000F00DF984
:10304000C82000F00AF9DA2000F007F9122000F099
:1030500004F9812000F001F9CF2000F0FEF8D9201A
:1030600000F0FBF8F12000F0F8F8DB2000F0F5F8B4
:10307000302000F0F2F8A42000F0EFF8A62000F0D5
:10308000ECF88D2000F0E9F8142000F0E6F8AF200D
:1030900000F0E3F8FFF702FF70BD10B50246012013
:1030A00000E050430B1EA1F10101FAD110BD70B533
:1030B00005460C4645F0B00000F0CFF8102141EA7B
:1030C000141000F0CAF804F00F0000F0C6F870BD4C
:1030D0002DE9F04105460E461746721ED206110E26
:1030E0006A1E5206100EFFF7E2FF002409E0A7F166
:1030F0002001134A02EB0111085D00F0BEF8601CCC
:10310000C4B2082CF3DB721ED206110E6A1E012314
:1031100003EB4202D0B2FFF7CAFF00240BE0A7F195
:103120002001074A02EB011204F10801505C00F093
:10313000A4F8601CC4B2082CF1DBBDE8F0810000EB
:10314000245800082DE9F04105460E461746721E28
:10315000D206110E6A1E5206100EFFF7A8FF0024B9
:1031600007E0124A02EB4711085D00F086F8601C88
:10317000C4B2102CF5DB721ED206110E6A1E01239A
:1031800003EB4202D0B2FFF792FF002409E0074AA6
:1031900002EB471204F11001505C00F06EF8601C65
:1031A000C4B2102CF3DBBDE8F0810000145E00080F
:1031B0002DE9F04780460E4617461D46002415E0CF
:1031C000281B411E0A20FFF768FFB7FBF0F00A2119
:1031D000B0FBF1F201FB120000F130093019C1B26D
:1031E0004A464046FFF774FF601CC4B2AC42E7DBBE
:1031F000BDE8F0872DE9F04107460E46154600244C
:1032000007E02A5D3019C1B23846FFF761FF601C44
:10321000C4B2285D0028F4D1BDE8F0810FB4F8B540
:1032200005460E4617460AA8009000240EE0099BAA
:10323000DAB206EB4403D9B2E8B2FFF783FF009895
:10324000006809900098001D0090641CBC42EEDBF1
:1032500000200090F8BC5DF814FB10B50446FFF7A1
:1032600097FE7820FFF76AFE0020FFF767FE2046F2
:10327000FFF764FEFFF7A6FE10BD10B50446FFF78A
:1032800087FE7820FFF75AFE4020FFF757FE2046C2
:10329000FFF754FEFFF796FE10BD000010B5024682
:1032A00000200C4B186820F00300104318600A4BF4
:1032B0001B6843F00403084C2360012901D130BF8F
:1032C00000E020BF044B1B6823F00403024C236082
:1032D00010BD00000070004010ED00E070470000DD
:1032E00070B586B004460D460020C849086004EB5E
:1032F0004400C74901EBC0000069A8425ED200202B
:10330000C249086040E05720562150225423CDE99D
:1033100000210290042201210846FFF77FFF2122AD
:1033200009210120FFF7D4FE5020542159225823AF
:10333000CDE900210290042201210220FFF76EFF57
:1033400004EB4401B24A02EBC1010869FFF7E1FC5A
:10335000C6B204EB4400AE4901EBC0003346012184
:1033600002690320FFF724FF372036211D221C238A
:10337000CDE90132CDE903101B201A2306220121D9
:1033800000900420FFF74AFFA048006818B9A14840
:1033900000680028B7D100209C4908609EA2012146
:1033A0000846FFF727FF0220FFF78EFD0320FFF7F7
:1033B0008BFD0420FFF788FD06B070BD7DBB61204A
:1033C0005E215D225023CDE90232CDE904104F2069
:1033D0004A2149230722CDE9001001210220FFF7ED
:1033E0001DFF91A20F210220FFF704FF0120FEF72D
:1033F000D2FF4FF4FA70FEF7C2FF00208349086045
:1034000085A201210846FFF7F5FE0220FFF75CFDCB
:103410000320FFF759FD0420FFF756FDCCE7FFE737
:1034200000207A4908603EE050204F214A2249237B
:10343000CDE900210290042201210846FFF7EEFEAB
:103440003A2209210120FFF743FE2846FFF761FCDD
:10345000C6B233462A4601210220FFF7A9FE1A22EE
:1034600001210320FFF76EFE70A203210846FFF73B
:10347000C1FE392038230222062100900320FFF7E5
:10348000CDFE1A2201210420FFF75CFE68A2032171
:103490000420FFF7AFFE37203623022206210090DA
:1034A0000420FFF7BBFE5B48006838B1574800684E
:1034B0000D2803D0554800680E28B5D15348006840
:1034C0000D287DD100205149086053A201210846F2
:1034D000FFF790FE0220FFF7F7FC0320FFF7F4FC54
:1034E0000420FFF7F1FC20205C215B225A23CDE968
:1034F00000210290042201210220FFF78FFE04EB3D
:103500004400434901EBC0000069401B04EB440147
:103510003F4A02EBC101086104EB4400164606EB8A
:10352000C000036904EB440006EBC000C21D04EBBD
:10353000440006EBC0012046FEF73EFC0220FFF7E8
:10354000C3FC412040230222012100901046FFF7D6
:1035500065FE212205210220FFF7BAFD50205421EB
:1035600059225823CDE90021029004220121032091
:10357000FFF754FE3A2209210320FFF7A9FD04EBCF
:103580004401324602EBC1010869FFF7C2FBC6B233
:1035900004EB44001E4901EBC000334601210269DF
:1035A0000420FFF705FE0120FEF7F5FE4FF4FA7048
:1035B000FEF7E5FE00201549086017A2012100E092
:1035C0000CE00846FFF716FE0220FFF77DFC032003
:1035D000FFF77AFC0420FFF777FCEDE60B48006864
:1035E0000E2811D10020094908600BA201210846CC
:1035F000FFF700FE0220FFF767FC0320FFF764FCE3
:103600000420FFF761FCD7E600BFD5E610000020DC
:10361000A4000020140000202020202020202020B2
:10362000202020200000000030210000466E3100E4
:10363000466E320029B1064AD2690243044BDA6170
:1036400004E0034AD2698243014BDA61704700000B
:103650000010024029B1064A92690243044B9A6164
:1036600004E0034A92698243014B9A61704700006B
:103670000010024030B500210022002400232D4D0F
:103680006D6805F00C0121B1042905D0082923D16A
:1036900005E0294D056022E0274D05601FE0254D1E
:1036A0006D6805F47012234D6D6805F480340225B1
:1036B00005EB92421CB9214D554305600BE01D4DB1
:1036C0006D6805F400351DB11C4D5543056002E0E1
:1036D000194D5543056002E0174D056000BF00BF5E
:1036E000144D6D6805F0F0010909154D6B5C056816
:1036F000DD4045600F4D6D6805F4E061090A104D2D
:103700006B5C4568DD4085600A4D6D6805F460516D
:10371000C90A0B4D6B5C4568DD40C560054D6D68A1
:1037200005F44041890B074D6B5CC568B5FBF3F5AB
:10373000056130BD0010024000127A0000093D0012
:103740002800002038000020F0B589B000208D4905
:1037500008608DA201210846FFF74CFD0220FFF70B
:10376000B3FB0320FFF7B0FB0420FFF7ADFB002005
:1037700007900890FFF7E0FA0646EBE010200F23D1
:103780000222012100900846FFF748FD142016216F
:1037900015221323CDE90132CDE9031012201123A4
:1037A0000622012100900220FFF738FD3A220D2168
:1037B0000220FFF78DFC002407E007A8025DA01D92
:1037C000C1B20320FFF784FC641C07A8005D002839
:1037D000F3D1052C05DCA01DC1B25F220320FFF749
:1037E00077FC6848006800280DD0664800680A2801
:1037F0000ADC052C08DC634800782F3007A908553F
:10380000002060490860A4E05E4800680B280FD1E2
:10381000002C0DDBA01DC1B220220320FFF758FCB5
:103820000021601E07AA115400205649086090E04C
:10383000544800680C286DD1062C6BD107A8FFF7FF
:10384000EFF8074600204F490860781C00284ED04A
:103850000220FFF739FB0320FFF736FB0420FFF7B8
:1038600033FB1920182135221423CDE90132CDE98B
:103870000310162015230622012100900220FFF7D5
:10388000CDFC21220D210220FFF722FC2820272138
:1038900037223623CDE90332CDE905101D201C2146
:1038A0001B221A23CDE900210290082201210320C6
:1038B000FFF7B4FC002503E0002007A948556D1C64
:1038C000062DF9DB00BF2F48006818B932480068A0
:1038D0000028F8D100202B4908600220FFF7F4FAF5
:1038E0000320FFF7F1FA0420FFF7EEFA11E00020C1
:1038F0002449086006EB4601284A02EBC100062273
:1039000007A9FCF78EFE0021304600F0D7F809B079
:10391000F0BD1EE01B4800680D2819D1002503E00A
:10392000002007A948556D1C062DF9DB1CA20121BA
:103930000846FFF75FFC0220FFF7C6FA0320FFF7F7
:10394000C3FA0420FFF7C0FA00200E490860DEE742
:1039500000BF00BF1048006800287FF40FAF10A21E
:1039600001210846FFF746FC0220FFF7ADFA0320CD
:10397000FFF7AAFA0420FFF7A7FA0120064908601A
:1039800000BFC4E71000002020202020202020209D
:10399000202020202020000014000020A40000206F
:1039A0002020202020000000704738B50446002069
:1039B000009047208DF8000004F13000C0B28DF86F
:1039C000010021208DF80200684600F069F838BD3A
:1039D00000B587B001218803FFF73CFE01210420D8
:1039E000FFF738FE18208DF81B004FF40070ADF87B
:1039F000180003208DF81A0006A91F48FFF748F8A1
:103A000048208DF81B004FF48060ADF818000320AB
:103A10008DF81A0006A91848FFF73AF84FF4E1307C
:103A200002900020ADF814000C20ADF81200002028
:103A3000ADF81000ADF80E00ADF80C0002A90F486B
:103A400001F038F8012240F225510C4801F00CF841
:103A500025208DF8040001208DF807008DF8050061
:103A60008DF8060001A8FFF7D7F90121034800F0FF
:103A7000B8FF07B000BD0000000801400038014059
:103A800010B504462146054801F085F800BF8021A5
:103A9000024800F0B2FF0028F9D010BD0038014004
:103AA00070B50446002504E0605DFFF7E9FF681C7F
:103AB000C5B2605D0028F7D170BD00002DE9F0416E
:103AC0008AB005460E460020D8490860D8A20121D8
:103AD0000846FFF78FFB0220FFF7F6F90320FFF7F8
:103AE000F3F90420FFF7F0F900200890099088E12D
:103AF0002220212113221223CDE90032CDE9021028
:103B00001123052201210220FFF788FB3A220B2115
:103B10000220FFF7DDFA10200F230222012100907E
:103B20000846FFF77BFB002406E0A01DC1B22A2255
:103B30000320FFF7CDFA641C08A8005D0028F4D12B
:103B4000052C05DCA01DC1B25F220320FFF7C0FADF
:103B5000B648006800280DD0B44800680A280ADC7E
:103B6000052C08DCB14800782F3008A90855002042
:103B7000AE49086044E1AD4800680B280FD1002C25
:103B80000DDBA01DC1B220220320FFF7A1FA002106
:103B9000601E08AA11540020A449086030E1A3481F
:103BA00000680C287ED1062CFCD100209F490860BB
:103BB00005EB4500A24A02EBC000C11D062208A881
:103BC000FCF78FFC00284ED1012E4CD142E098A288
:103BD00001210846FFF70EFB0220FFF775F90320CD
:103BE000FFF772F90420FFF76FF92120722171228B
:103BF0005E23CDE90332CDE905105D20222121228B
:103C00007023CDE900210290082201210220FFF754
:103C100005FB7420732122230322CDE9001001212A
:103C20001046FFF7FBFA212207210320FFF750FA85
:103C300020201F211E221D23CDE90232CDE90410D0
:103C40001C201B211A230722CDE90010012104208A
:103C5000FFF7E4FA7548006800288BD179480068BE
:103C60000028B4D1CCE008A8FEF7F6F88046B8F1F9
:103C7000000F7DD0002E56D105EB4501704A02EBB6
:103C8000C101C81D062208A9FCF7CBFC68A20121CE
:103C90000846FFF7AFFA0220FFF716F90320FFF7F7
:103CA00013F900E096E00420FFF70EF941204021CF
:103CB0000E220D23CDE900210290042201210220D1
:103CC000FFF7ACFA212209210220FFF701FA202098
:103CD0000C210B224523CDE90232CDE9041044200A
:103CE000432142230622CDE9001001210320FFF7E2
:103CF00095FA2846FFF77EF805EB4500504B03EB9D
:103D0000C000C21D05EB450003EBC001002328469F
:103D1000FEF752F80220FEF73EFB284600F042FF75
:103D20000AB0BDE8F081012E53D105EB4501444AAC
:103D300002EBC101C81D062208A9FCF772FC3CA2D7
:103D400001210846FFF756FA0220FFF7BDF80320CD
:103D5000FFF7BAF80420FFF7B7F8412040215522B9
:103D60006F23CDE90021029004220121022000E00E
:103D700018E0FFF753FA212209210220FFF7A8F9E2
:103D800005EB45002E4B03EBC000C21D05EB4500C3
:103D900003EBC00100232846FEF70EF80220FEF7D1
:103DA000FAFABDE7002703E0002008A9C8557F1CE8
:103DB000062FF9DB1EA201210846FFF71BFA02209D
:103DC000FFF782F80320FFF77FF80420FFF77CF865
:103DD00000BF15E0154800680D2811D100201349D7
:103DE000086013A201210846FFF704FA0220FFF73A
:103DF0006BF80320FFF768F80420FFF765F88FE7FA
:103E000000BF1048006800287FF472AE0EA20121A6
:103E10000846FFF7EFF90220FFF756F80320FFF7F7
:103E200053F80420FFF750F800BF79E71000002096
:103E300020202020202020202020202020200000C2
:103E4000A4000020140000202020202020000000DA
:103E500010B500F001F810BD0CB5002001900090E5
:103E60003348006840F480303149086000BF304872
:103E7000006800F4003000900198401C0190009808
:103E800018B90198B0F5A06FF1D12948006800F485
:103E9000003010B10120009001E000200090009857
:103EA000012843D12348006840F0100021490860F0
:103EB0000846006820F0030008600846006840F0EB
:103EC000020008601A48406819494860084640687E
:103ED00048600846406840F4806048600846406892
:103EE00020F47C1048600846406840F4E8104860C0
:103EF0000846006840F08070086000BF0C48006809
:103F000000F000700028F9D00948406820F0030054
:103F1000074948600846406840F00200486000BF1A
:103F20000348406800F00C000828F9D10CBD0000DF
:103F300000100240002002407047000010B51348F6
:103F4000006840F0010011490860084640681049C7
:103F500008400E494860084600680E4908400B4971
:103F600008600846006820F4802008600846406821
:103F700020F4FE0048604FF41F008860FFF768FFE0
:103F80004FF000600449086010BD000000100240BE
:103F90000000FFF8FFFFF6FE08ED00E01CB5012170
:103FA000880700F05DF801283CD101210007FFF7E8
:103FB00041FB1DA0FFF774FD1420FEF7E0F901207E
:103FC000FEF782FF0220FEF77FFF0320FEF77CFF53
:103FD0000420FEF779FF1420FEF7D1F9872086210F
:103FE00085230322CDE9001006210220FFF716F9F0
:103FF00001210846FFF752F90CA206210220FFF723
:10400000F9F8FFF79BFF06220F210120FFF79AF82E
:1040100008A0FFF745FD0020074908600121880737
:1040200000F00FF81CBD000053312100202020209B
:10403000202000005330210010000020CA430282DB
:104040007047CA430282704721B1028842F00102E0
:10405000028004E002884FF6FE731A400280704727
:1040600030B50246002000230024158A05EA01032A
:10407000958905EA010413B10CB1012000E000208C
:1040800030BD1AB183890B43838102E083898B435E
:104090008381704701894FF6F872114001817047A2
:1040A000002202881D4B98420ED01D4B98420BD027
:1040B000B0F1804F08D01B4B984205D01A4B984264
:1040C00002D01A4B984204D14FF68F731A404B8896
:1040D0001A43174B984207D0164B984204D04FF61C
:1040E000FF431A40CB881A4302808B8883850B8854
:1040F00003850A4B98420BD0094B984208D00E4BCF
:10410000984205D00D4B984202D00D4B984201D1F8
:104110000B7A03860123838270470000002C014044
:10412000003401400004004000080040000C004042
:1041300000100040001400400040014000440140D5
:10414000004801401FB501210846FFF773FA4FF000
:104150008040FFF79FFF0020ADF80A00ADF8060091
:1041600044F61F60ADF8080048F69F40ADF8040023
:1041700000208DF80C0001A94FF08040FFF790FF60
:1041800001218807FFF75AFF012211469007FFF728
:1041900078FF1C208DF8000001208DF8030003201B
:1041A0008DF801008DF802006846FEF735FE01210A
:1041B0008807FFF749FF1FBD70B588B0064691A27A
:1041C00001210846FFF716F80220FEF77DFE0320C6
:1041D000FEF77AFE0420FEF777FE00208D49086086
:1041E0000690079006E110200F2302220121009083
:1041F0000846FFF713F84E204D2147224623CDE90C
:104200000232CDE904101320122111230722CDE937
:10421000001001210220FFF701F83A220F210220AD
:10422000FEF756FF002407E006A8025DA01DC1B2FC
:104230000320FEF74DFF641C06A8005D0028F3D1A3
:10424000052C05DCA01DC1B25F220320FEF740FF54
:104250007048006800280DD06E4800680A280ADC03
:10426000052C08DC6B4800782F3006A90855002083
:1042700068490860BDE0674800680B280FD1002C32
:104280000DDBA01DC1B220220320FEF721FF00217B
:10429000601E06AA115400205E490860A9E05D482E
:1042A00000680C287ED1062CFCD1002059490860FA
:1042B00006A8FEF7B5FB0546B5422CD151A2012157
:1042C0000846FEF797FF0220FEF7FEFD0320FEF7EB
:1042D000FBFD0420FEF7F8FD4720462160225F2306
:1042E000CDE90232CDE904104D205E215D23072285
:1042F000CDE9001001210220FEF790FF21220F21BD
:104300000220FEF7E5FE0220FEF745F800204149B5
:10431000086008B070BD002D04DD2946304600F06D
:1043200081F8F6E70220FEF7CFFD0320FEF7CCFD73
:1043300000203849086028E01620152302220121B8
:1043400000901046FEF76AFF06AA05210220FEF73C
:1043500051FF1920182117230322CDE900100B214A
:104360000220FEF75BFF20201F211E221D23CDE926
:104370000232CDE904101C201B211A230722CDE9AB
:10438000001001210420FEF749FF2248006818B9F7
:10439000214800680028CFD100201E49086019A2DA
:1043A000012100E00FE00846FEF724FF0220FEF79F
:1043B0008BFD0320FEF788FD0420FEF785FD00201D
:1043C0000690079015E0134800680D2811D113A23C
:1043D00001210846FEF70EFF0220FEF775FD0320BF
:1043E000FEF772FD0420FEF76FFD0020094908600A
:1043F0008FE700BF0848006800287FF4F4AE00BFD4
:1044000087E70000202020202020202020202020BE
:1044100000000000100000201400002020202020B8
:10442000200000002DE9F0418AB005460E46FEA2AC
:1044300001210846FEF7DEFE0220FEF745FD0320BF
:10444000FEF742FD0420FEF73FFD0020FA49086018
:1044500007900890099059E210200F2302220121B1
:1044600000900846FEF7DAFE50204F2147224623EF
:10447000CDE90232CDE904101320122111230722C5
:10448000CDE9001001210220FEF7C8FE3A220F21DB
:104490000220FEF71DFE002407E007A8025D601C55
:1044A000C1B20320FEF714FE641C07A8005D0028BB
:1044B000F3D1092C05DC601CC1B25F220320FEF79A
:1044C00007FEDD48006800280DD0DB4800680A2898
:1044D0000ADC092C08DCD84800782F3007A90855D9
:1044E0000020D549086010E2D34800680B280FD19E
:1044F000002C0DDB601CC1B220220320FEF7E8FD7A
:104500000021601E07AA11540020CB490860FCE17D
:10451000C94800680C287DD1002C7BDD0020C649ED
:104520000860C1A201210846FEF764FE0220FEF7E2
:10453000CBFC0320FEF7C8FC0420FEF7C5FC07A84F
:10454000FBF7B0FF0A280ED1BCA107A8FCF794F82E
:10455000002808DD002007900890099000F014FD65
:104560000AB0BDE8F08107A8FBF752FF0746F7B98C
:1045700061205E215D225023CDE90232CDE9041095
:104580004F20482147230722CDE9001001210220B6
:10459000FEF744FEACA20F210220FEF72BFE002006
:1045A0000790089009900220FDF7F5FE98E105EBD1
:1045B0004500A64901EBC0000069B84263D245E05E
:1045C0005720562150225423CDE900210290042285
:1045D00001210846FEF722FE212209210120FEF7D3
:1045E00077FD5020542159225823CDE90021029013
:1045F000042201210220FEF711FE05EB4501934A3A
:1046000002EBC1010869FEF784FB00F0FF0805EB2F
:10461000450000E065E18D4901EBC0004346012102
:1046200002690320FEF7C4FD2020372136221D2316
:10463000CDE90232CDE904101C201B211A230622E9
:10464000CDE9001001210420FEF7E8FD7A4800685A
:1046500018B97F4800680028B2D100207649086068
:1046600071A201210846FEF7C5FD0220FEF72CFCD1
:104670000320FEF729FC0420FEF726FC002007900B
:10468000089009902CE1C7F1FF3006EB46016F4A14
:1046900002EBC1010969884206D200200790089008
:1046A000099000F071FC36E10020634908604FE09A
:1046B00050204F2147224623CDE9002102900422B9
:1046C00001210846FEF7AAFD3A2209210120FEF742
:1046D000FFFC3846FEF71DFB00F0FF0843463A4654
:1046E00001210220FEF764FD4E204D214722462382
:1046F000CDE900210290042201210320FEF78EFD66
:104700003A2209210320FEF7E3FC06EB46004F495D
:1047100001EBC0020A210320FEF76CFD4DA201212E
:104720000420FEF767FD392038230222042100907F
:104730000846FEF773FD48A20A210420FEF75AFD41
:104740003720362302220D2100900420FEF766FD5B
:10475000394800680D2807D0374800680E2803D074
:104760003B4800680028A3D1334800680D285AD17F
:104770000020314908602CA201210846FEF73AFDCD
:104780000220FEF7A1FB0320FEF79EFB0420FEF7AC
:104790009BFB20205C215B225A23CDE90021029063
:1047A000042201210220FEF739FD05EB45002749CF
:1047B00001EBC0000069C01B05EB4501234A02EB79
:1047C000C101086106EB4600114601EBC00000691B
:1047D000384406EB460102EBC101086105EB4500D8
:1047E00094460CEBC000036905EB45000CEBC000E0
:1047F000C21D05EB45000CEBC0012846FDF7DCFAB5
:104800004FF49670FDF7BBFD06EB4600DFF83CC0A9
:104810000CEBC000036906EB46000CEBC000C21DA8
:1048200006EB46001AE042E0202020202020202035
:1048300020202020000000001000002034323934F5
:10484000393637323935000030210000A40000200D
:1048500014000020466E3100466E32000CEBC001A1
:104860003046FDF7A9FA41204023022201210090A1
:104870000320FEF7D3FC212205210320FEF728FCAC
:104880000120FDF788FD4FF4FA70FDF778FDAFF2D7
:10489000680201210846FEF7ADFC0220FEF714FB7A
:1048A0000320FEF711FB0420FEF70EFB58E61B4821
:1048B00000680E2814D1002018490860079008905D
:1048C0000990AFF29C0201210846FEF793FC0220FA
:1048D000FEF7FAFA0320FEF7F7FA0420FEF7F4FADF
:1048E00013E00E4800680D280FD1AFF2C402012179
:1048F0000846FEF77FFC0220FEF7E6FA0320FEF7EB
:10490000E3FA0420FEF7E0FA2AE600BF0448006854
:1049100000287FF4A1AD00BF00BF21E610000020F9
:104920001400002010B540F22551214800F072F823
:1049300001283CD11E4800F029F9C4B21D48007876
:1049400058B9402C2DD11C48007850BB0120194982
:10495000087000201949087023E0164800780128E3
:104960000FD10D2C03D102201249087019E0144810
:1049700012490978445411480078401C0F490870C6
:104980000FE00C48007802280BD10A2C09D1002036
:10499000084908700A49094A1278885401200649D2
:1049A000087040F22551024800F00CF800BF10BD1D
:1049B000003801403D0000203C0000203E00002067
:1049C0009401002010B50022002340F66A14A14291
:1049D00000D100BF0A1201249440A3B2DC4304803A
:1049E00010BD21B1828942F40052828104E08289A3
:1049F0004DF6FF731A408281704702460020B1F5E0
:104A0000007F00D100BF13880B400BB1012000E0F4
:104A10000020704770B502460024002300250020C6
:104A200040F66A16B14200D100BFC1F3421501F051
:104A30001F03012606FA03F3012D02D196893340A4
:104A400006E0022D02D1168A334001E0968A3340F7
:104A50000C12012606FA04F41688344013B10CB186
:104A6000012000E0002070BDF0B5034600240026C0
:104A70000025002040F66A17B94200D100BF184651
:104A8000C1F3421401F01F06012707FA06F5012CB5
:104A900001D10C3004E0022C01D1103000E01430C0
:104AA0001AB107682F43076002E00768AF43076049
:104AB000F0BD00002DE9F04786B005460E46002403
:104AC000A24600BFA1460027B08900B100BF2F4613
:104AD0002C8A4CF6FF700440F08804432C82AC8989
:104AE0004EF6F3100440B0883189084371890843B9
:104AF0000443AC81AC8A4FF6FF400440B0890443C4
:104B0000AC8201A8FEF7B6FD1F48874202D1DDF84E
:104B100010A001E0DDF80CA0A88900F4004040B12D
:104B20000AEBCA0000EB0A1031684900B0FBF1F84B
:104B300007E00AEBCA0000EB0A1031688900B0FBFD
:104B4000F1F86420B8FBF0F004012009642101FBB6
:104B50001089A88900F4004040B1322000EBC90060
:104B6000B0FBF1F000F00700044308E0322000EB56
:104B700009106421B0FBF1F000F00F0004432C8118
:104B800006B0BDE8F0870000003801400146888883
:104B9000C0F308007047C1F308028280704700BF6D
:104BA000FEE700002DE9FC4106460020834908602D
:104BB000012483A201210846FEF71CFB0220FEF718
:104BC00083F90320FEF780F90420FEF77DF9E0E089
:104BD00010200F230222012100900846FEF71EFB41
:104BE0002D202C230222012100901046FEF716FBF7
:104BF00006EB4600764901EBC00205210220FEF7D4
:104C0000F9FA2C220B210220FEF762FA4C204B23EA
:104C100002220C2100901046FEF700FB472046239D
:104C20000222052100900320FEF7F8FA4A204921CC
:104C300048230322CDE900100B211046FEF7EEFABF
:104C40005020542153230322CDE9001011460420A3
:104C5000FEF7E4FA2220212155230322CDE900109A
:104C60000B210420FEF7DAFA012529E0A54213D131
:104C70006F1C07EBD7725210A7EB4202022303EB23
:104C8000C202D1B2B84608EBD8725210921CD0B210
:104C900050A2FEF7AFFA12E06F1C07EBD77252106A
:104CA000A7EB4202022303EBC202D1B2B84608EBE3
:104CB000D8725210921CD0B247A2FEF79BFA6D1C1C
:104CC000042DD3DD3D480068002862D03B480068D1
:104CD000032803D03948006809280ED1012C01D1DE
:104CE00003240AE0022C01D1042406E0032C01D1A4
:104CF000012402E0042C00D1022430480068052879
:104D000003D1641E002C00DC04242C480068072812
:104D100004D1641C052C39DB012437E027480068E6
:104D2000062803D0254800680C2818D1012C03D18F
:104D30003046FFF741FA29E0022C03D13046FCF758
:104D40002FFE23E0032C03D13046FCF775FD1DE058
:104D5000042C1BD101213046FEF7B0FE16E01748A7
:104D600000680D2812D100201449086014A2012106
:104D70000846FEF73FFA0220FEF7A6F80320FEF7EA
:104D8000A3F80420FEF7A0F8BDE8FC8100200B4941
:104D900008601248006800287FF41AAF08A20121B9
:104DA0000846FEF727FA0220FEF78EF80320FEF7EA
:104DB0008BF80420FEF788F800BFE5E7100000201C
:104DC0002020202020202020202020202020000023
:104DD000A40000203E00000020000000140000207D
:104DE00030B585B064215F48FBF7D2FB0520042174
:104DF00003220223CDE90132CDE903100120002373
:104E00000622014600900220FEF708FA33E0052052
:104E1000042103220223CDE90132CDE90310012050
:104E200000230622014600900220FEF7F7F94FF416
:104E300000514D48FDF7C0FE0D2408E0E1B22E22DE
:104E40000220FEF745F9C820FDF799FA641C0F2CE3
:104E5000F4DD4FF400514448FDF754FF0F2408E0FF
:104E6000E1B220220220FEF733F9C820FDF787FACD
:104E7000641E0D2CF4DA3D4800780028C7D039486C
:104E800000783F280AD14FF400513748FDF794FECF
:104E90000020364908700120FEF716F806220F217F
:104EA0000120FEF74FF92F4800210160017130A069
:104EB000FEF7F6FD2F202E212D222C23CDE90132E5
:104EC000CDE903102B202A23062201210090022085
:104ED000FEF7A4F920220D210220FEF733F900BFCE
:104EE000224800780028FBD01E492248FBF7B6FA7A
:104EF00021A12048FBF79AFA0546002411E0284634
:104F0000FBF786FA1D49012241F82020641C1C4849
:104F10000068401C1A49086017A10020FBF786FAB8
:104F20000546002DEBD1002400BF07E0134850F8E0
:104F3000240010B12046FDF70FFF641C0A2CF5DB9E
:104F40000220FDF7C1FF0FA207210220FEF752F950
:104F50004FF44870FDF713FA0220FDF7B5FF05B0D6
:104F600030BD000094010020001001403C000020F2
:104F70004C210000440000202C000000780000209C
:104F8000000000204F4B210000B587B000203649BB
:104F9000086036A201210846FEF72CF90220FDF731
:104FA00093FF0320FDF790FF0420FDF78DFF6520A0
:104FB000642163226223CDE90021029004220121B1
:104FC0000846FEF72BF9212209210120FEF780F87F
:104FD0006920682167226623CDE90021029004221E
:104FE00001210220FEF71AF9212209210220FEF7F1
:104FF0006FF86E206D216C226B23CDE90132CDE973
:1050000003106A2011230622012100900320FEF7DD
:1050100005F920201F211E221D23CDE90232CDE9F2
:1050200004101C201B211A230722CDE900100121A6
:105030000420FEF7F3F800BF0B4800680028FBD0FF
:1050400000200949086009A201210846FEF7D2F8AC
:105050000220FDF739FF0320FDF736FF0420FDF79E
:1050600033FF07B000BD00001000002020202020EA
:1050700020202020202020200000000030380A2896
:1050800001D20120704700207047000070B588B041
:105090008AA201210846FEF7ADF80220FDF714FFB1
:1050A0000320FDF711FF0420FDF70EFF00208749C4
:1050B000086006900790E9E010200F2302220121EA
:1050C00000900846FEF7AAF8142016211522132393
:1050D000CDE90132CDE9031012201123062201216E
:1050E00000900220FEF79AF83A220D210220FDF7E7
:1050F000EFFF002407E006A8025DA01DC1B2032057
:10510000FDF7E6FF641C06A8005D0028F3D1052C1E
:1051100005DCA01DC1B25F220320FDF7D9FF6B485B
:10512000006800280DD0694800680A280ADC052CB0
:1051300008DC664800782F3006A90855002063492E
:105140000860A2E0614800680B280FD1002C0DDB3D
:10515000A01DC1B220220320FDF7BAFF0021601E6E
:1051600006AA11540020594908608EE0574800688B
:105170000C2874D1062C72D100205449086006A86E
:10518000FDF74EFC0646701C28B1002E4FD150484A
:10519000006800284BD10220FDF796FE0320FDF7A2
:1051A00093FE28E0162015230222012100901046CC
:1051B000FEF734F806AA05210220FEF71BF8192095
:1051C000182117230322CDE900100B210220FEF73E
:1051D00025F820201F211E221D23CDE90232CDE912
:1051E00004101C201B211A230722CDE900100121E5
:1051F0000420FEF713F83548006818B935480068F0
:105200000028CFD1002031490860002503E00020AC
:1052100006A948556D1C062DF9DB0220FDF754FE4A
:105220000320FDF751FE0420FDF74EFE16E0304648
:1052300000F002F9054685B927A201210846FDF7CD
:10524000D9FF0220FDF740FE0320FDF73DFE0420BC
:10525000FDF73AFE08B070BD01E000BF15E01B4845
:1052600000680D2811D11CA201210846FDF7C2FFDC
:105270000220FDF729FE0320FDF726FE0420FDF79E
:1052800023FE002011490860E4E700BF11480068D0
:1052900000287FF411AF10A201210846FDF7AAFFF4
:1052A0000220FDF711FE0320FDF70EFE0420FDF79E
:1052B0000BFE01200749086000BFCBE7202020201B
:1052C00020202020202020200000000010000020AE
:1052D00018000020140000202020202020000000C2
:1052E0000EB5FDF783FEFDF769FC6420FDF747F876
:1052F000FEF76EFBFFF774FDFEF724FF4FF400513D
:105300004448FDF7FFFC01240020434908600DE0FC
:1053100000204149096801EB4101404A02EBC1010B
:1053200048613D480068401C3B4908603A480068B5
:105330000A28EDDB6DE00120394908600A200921C7
:1053400008220723CDE9002102900422012108460A
:10535000FDF764FF33A209210120FDF74BFF0C206C
:105360000B230222072100900320FDF757FF0E2098
:105370000D230222072100900420FDF74FFF01209A
:105380002549086019E024480068A04208D1224954
:105390000978891CC8B225A20321FDF72BFF07E07D
:1053A0001D490978891CC8B221A20321FDF722FFFB
:1053B00019480068401C184908601748006802280E
:1053C000E1DD1C48006820B31A480068032803D1B7
:1053D000641EDCB9022419E016480068092804D1CB
:1053E000641C032C12D1012410E012480068062826
:1053F00003D0104800680C2808D1012C02D1FFF717
:1054000045FE03E0022C01D1FEF79EF90020094978
:10541000086090E70010014004000020A400002074
:105420001400002041544D21000000002D3E0000DA
:105430002020000010000020F0B589B005460220B1
:10544000FDF742FD0320FDF73FFD0420FDF73CFD85
:10545000002007900890B0E110200F2302220121C4
:1054600000900846FDF7DAFE2220212113221223A4
:10547000CDE90032CDE902101123052201210220DD
:10548000FDF7CCFE3A220B210220FDF721FE00247D
:1054900006E0A01DC1B22A220320FDF719FE641CFC
:1054A00007A8005D0028F4D1052C05DCA01DC1B2C1
:1054B0005F220320FDF70CFECA48006800280DD0CB
:1054C000C84800680A280ADC052C08DCC5480078B2
:1054D0002F3007A908550020C24908606CE1C14877
:1054E00000680B280FD1002C0DDBA01DC1B22022BB
:1054F0000320FDF7EDFD0021601E07AA11540020D6
:10550000B849086058E1B74800680C287ED1062CDD
:10551000FCD10020B349086005EB4501B24A02EB1B
:10552000C101C81D062207A9FAF7DBFF00BBAFA225
:1055300001210846FDF75EFE0220FDF7C5FC0320B1
:10554000FDF7C2FC0420FDF7BFFC002603E00020AD
:1055500007A98855761C062EF9DB25B9FCF7CEF88D
:10556000002009B0F0BD2846FFF71CFB0020F8E73B
:1055700005EB45009C4901EBC0004069401C05EB70
:105580004501994A02EBC101486105EB450011460E
:1055900001EBC000406905286ADA0220FDF794FC9F
:1055A0000320FDF791FC2420232122222123CDE991
:1055B00000210290042201210220FDF72FFE21226A
:1055C00009210220FDF784FD2820272126222523FA
:1055D000CDE900210290042201210320FDF71EFEE7
:1055E0003A2209210320FDF773FD05EB45007E49B2
:1055F00001EBC0004069C0F105020123092103202D
:10560000FDF7D6FD29220A21032000E0BDE0FDF7C9
:1056100099FD20201F211E221D23CDE90232CDE954
:1056200004101C201B211A230722CDE900100121A0
:105630000420FDF7F3FD00BF6A48006818B96D4803
:1056400000680028F8D1002066490860002603E0C1
:10565000002007A98855761C062EF9DB0220FDF7ED
:1056600033FC0320FDF730FC0420FDF72DFCA3E004
:10567000042005EB45015C4A02EBC10148610027AB
:1056800003E0002007A9C8557F1C062FF9DB57A2AD
:1056900001210846FDF7AEFD0220FDF715FC0320B1
:1056A000FDF712FC0420FDF70FFC322031213022DF
:1056B0002923CDE90132CDE903102420232306223A
:1056C000012100900220FDF7A9FD21220D210220D9
:1056D000FDF7FEFC19201123022201210090032076
:1056E000FDF79CFD2820272134223323CDE900211A
:1056F0000290042207210320FDF790FD00260F20D1
:10570000059000208DF8180008208DF81900002061
:105710008DF81A0000210120FDF78CFF05A8FDF788
:1057200035F90DE0C6F10A02022305210320FDF739
:105730003FFD0120FCF72FFE761C00202949086060
:105740000A2EEFDB01208DF81A0005A8FDF71EF9DF
:1057500001210846FDF76EFF00204FF0804188844C
:1057600001202449086000201E4908601FA2012171
:105770000846FDF73FFD0220FDF7A6FB0320FDF7DD
:10578000A3FB0420FDF7A0FB16E0164800680D28D7
:1057900012D116A201210846FDF72CFD0220FDF7CB
:1057A00093FB0320FDF790FB0420FDF78DFB002009
:1057B0000C4908600120D4E600BF0E4800680028AC
:1057C0007FF44AAE09A201210846FDF713FD02202D
:1057D000FDF77AFB0320FDF777FB0420FDF774FB50
:1057E0000120BEE610000020A40000202020202080
:1057F000200000001400002010B500290AD008780D
:10580000002807D005487844FAF736FF002801D071
:10581000002010BD0248784410BD0000421700006F
:105820003A17000000000000000000000000000027
:1058300000000000000000F800000000000000333D
:105840003000000000100C06100C060000000000E4
:105850000000000040C07840C0784000043F0404CD
:105860003F040400007088FC08300000001820FF8E
:10587000211E0000F008F000E018000000211C03C9
:105880001E211E0000F00888700000001E21232445
:105890001927211010160E00000000000000000063
:1058A00000000000000000E01804020000000007F3
:1058B0001820400000020418E000000000402018FA
:1058C00007000000404080F0804040000202010FCD
:1058D00001020200000000F0000000000101011FB1
:1058E00001010100000000000000000080B0700015
:1058F00000000000000000000000000000010101A5
:105900000101010100000000000000000030300033
:10591000000000000000000080601804006018060D
:105920000100000000E010080810E000000F102047
:1059300020100F00001010F8000000000020203F91
:10594000202000000070080808887000003028241B
:1059500022213000003008888848300000182020BC
:1059600020110E000000C02010F8000000070424E1
:10597000243F240000F80888880808000019212026
:1059800020110E0000E0108888180000000F112080
:1059900020110E0000380808C83808000000003F39
:1059A000000000000070880808887000001C222198
:1059B00021221C0000E010080810E0000000312245
:1059C00022110F00000000C0C000000000000030E5
:1059D0003000000000000080000000000000806037
:1059E00000000000000080402010080000010204B8
:1059F000081020004040404040404000040404049F
:105A0000040404000008102040800000002010085A
:105A100004020100007048080808F000000000308F
:105A200036010000C030C828E810E000071827241D
:105A300023140B000000C038E0000000203C2302CB
:105A40000227382008F8888888700000203F20202E
:105A500020110E00C0300808080838000718202060
:105A60002010080008F808080810E000203F202057
:105A700020100F0008F88888E8081000203F202038
:105A80002320180008F88888E8081000203F20002C
:105A900003000000C0300808083800000718202064
:105AA000221E020008F808000008F808203F210123
:105AB00001213F20000808F8080800000020203FCE
:105AC0002020000000000808F8080800C08080803E
:105AD0007F00000008F888C028180800203F200137
